:020000040800F2
:1000000000400020194700086947000869470008B8
:1000100069470008694700086947000800000000B8
:100020000000000000000000000000006947000818
:10003000694700080000000069470008990D0008A2
:1000400069470008694700086947000869470008D0
:1000500069470008694700086947000869470008C0
:1000600069470008694700086947000869470008B0
:1000700069470008694700086947000869470008A0
:100080006947000869470008694700086947000890
:100090006947000869470008694700086947000880
:1000A0006947000869470008694700086947000870
:1000B00069470008000000000000000069470008D0
:1000C0006947000869470008694700080000000008
:1000D0006947000869470008A50D0008694700083E
:1000E000B50D0008694700086947000800000000D6
:1000F0000000000000000000000000000000000000
:100100000000000000000000000000006947000837
:100110000000000000000000694700080000000027
:1001200000000000000000000000000000000000CF
:1001300000000000000000000000000000000000BF
:10014000694700086947000800000000000000003F
:10015000000000000000000000000000000000009F
:1001600069470008694700086947000869470008AF
:1001700069470008000000000000000000000000C7
:080180000000000069470008BF
:1001880010B5054C237833B9044B13B10448AFF3C9
:1001980000800123237010BD8000002000000000B3
:1001A80060490008084B10B51BB108480849AFF36F
:1001B80000800848036803B910BD074B002BFBD02B
:1001C800BDE81040184700BF000000006049000863
:1001D800840000207C0000200000000081F0004125
:1001E80002E000BF83F0004330B54FEA41044FEA14
:1001F800430594EA050F08BF90EA020F1FBF54EAAF
:10020800000C55EA020C7FEA645C7FEA655C00F04A
:10021800E2804FEA5454D4EB5555B8BF6D420CDD1B
:100228002C4480EA020281EA030382EA000083EA9E
:10023800010180EA020281EA0303362D88BF30BD3E
:1002480011F0004F4FEA01314FF4801C4CEA113194
:1002580002D0404261EB410113F0004F4FEA0333F3
:100268004CEA133302D0524263EB430394EA050F7E
:1002780000F0A780A4F10104D5F1200E0DDB02FAED
:100288000EFC22FA05F2801841F1000103FA0EF281
:10029800801843FA05F359410EE0A5F120050EF147
:1002A800200E012A03FA0EFC28BF4CF0020C43FA78
:1002B80005F3C01851EBE37101F0004507D54FF085
:1002C800000EDCF1000C7EEB00006EEB0101B1F5D5
:1002D800801F1BD3B1F5001F0CD349085FEA30001B
:1002E8004FEA3C0C04F101044FEA445212F5800F26
:1002F80080F09A80BCF1004F08BF5FEA500C50F1C3
:10030800000041EB045141EA050130BD5FEA4C0CA5
:10031800404141EB010111F4801FA4F10104E9D12E
:1003280091F0000F04BF01460020B1FA81F308BF25
:100338002033A3F10B03B3F120020CDA0C3208DDF1
:1003480002F1140CC2F10C0201FA0CF021FA02F1CC
:100358000CE002F11402D8BFC2F1200C01FA02F13C
:1003680020FA0CFCDCBF41EA0C019040E41AA2BF61
:1003780001EB0451294330BD6FEA04041F3C1CDA29
:100388000C340EDC04F11404C4F1200220FA04F049
:1003980001FA02F340EA030021FA04F345EA0301F3
:1003A80030BDC4F10C04C4F1200220FA02F001FAB5
:1003B80004F340EA0300294630BD21FA04F0294637
:1003C80030BD94F0000F83F4801306BF81F48011D0
:1003D8000134013D4EE77FEA645C18BF7FEA655C43
:1003E80029D094EA050F08BF90EA020F05D054EA15
:1003F800000C04BF1946104630BD91EA030F1EBF1A
:100408000021002030BD5FEA545C05D1400049411D
:1004180028BF41F0004130BD14F580043CBF01F510
:10042800801130BD01F0004545F0FE4141F47001F6
:100438004FF0000030BD7FEA645C1ABF19461046D1
:100448007FEA655C1CBF0B46024650EA013406BFD2
:1004580052EA033591EA030F41F4002130BD00BF91
:1004680090F0000F04BF0021704730B54FF480644E
:1004780004F132044FF000054FF0000150E700BFCF
:1004880090F0000F04BF0021704730B54FF480642E
:1004980004F1320410F0004548BF40424FF000011B
:1004A8003EE700BF42004FEAE2014FEA31014FEA5E
:1004B80002701FBF12F07F4393F07F4F81F06051AD
:1004C800704792F0000F14BF93F07F4F704730B51C
:1004D8004FF4607401F0004521F0004120E700BFAF
:1004E80050EA010208BF704730B54FF000050AE036
:1004F80050EA010208BF704730B511F0004502D537
:10050800404261EB41014FF4806404F132045FEA38
:10051800915C3FF4DCAE4FF003025FEADC0C18BFDD
:1005280003325FEADC0C18BF033202EBDC02C2F1D3
:10053800200300FA03FC20FA02F001FA03FE40EA65
:100548000E0021FA02F11444C1E600BF70B54FF065
:10055800FF0C4CF4E06C1CEA11541DBF1CEA135547
:1005680094EA0C0F95EA0C0F00F0DEF82C4481EAAF
:10057800030621EA4C5123EA4C5350EA013518BFCF
:1005880052EA033541F4801143F4801338D0A0FBBC
:1005980002CE4FF00005E1FB02E506F00042E0FB69
:1005A80003E54FF00006E1FB03569CF0000F18BF6F
:1005B8004EF0010EA4F1FF04B6F5007F64F5407417
:1005C80004D25FEA4E0E6D4146EB060642EAC621AA
:1005D80041EA55514FEAC52040EA5E504FEACE2E17
:1005E800B4F1FD0C88BFBCF5E06F1ED8BEF1004F1A
:1005F80008BF5FEA500E50F1000041EB045170BD96
:1006080006F0004646EA010140EA020081EA0301D9
:10061800B4EB5C04C2BFD4EB0C0541EA045170BDD5
:1006280041F480114FF0000E013C00F3AB8014F14F
:10063800360FDEBF002001F0004170BDC4F1000498
:10064800203C35DA0C341BDC04F11404C4F1200519
:1006580000FA05F320FA04F001FA05F240EA020074
:1006680001F0004221F0004110EBD37021FA04F6AA
:1006780042EB06015EEA430E08BF20EAD37070BD64
:10068800C4F10C04C4F1200500FA04F320FA05F0C3
:1006980001FA04F240EA020001F0004110EBD370C5
:1006A80041F100015EEA430E08BF20EAD37070BD35
:1006B800C4F1200500FA05F24EEA020E20FA04F30E
:1006C80001FA05F243EA020321FA04F001F00041BD
:1006D80021FA04F220EA020000EBD3705EEA430E2E
:1006E80008BF20EAD37070BD94F0000F0FD101F05D
:1006F8000046400041EB010111F4801F08BF013C96
:10070800F7D041EA060195F0000F18BF704703F0D3
:100718000046520043EB030313F4801F08BF013D5A
:10072800F7D043EA0603704794EA0C0F0CEA135516
:1007380018BF95EA0C0F0CD050EA410618BF52EAD0
:100748004306D1D181EA030101F000414FF00000D6
:1007580070BD50EA410606BF1046194652EA4306E4
:1007680019D094EA0C0F02D150EA013613D195EA58
:100778000C0F05D152EA03361CBF104619460AD1A0
:1007880081EA030101F0004141F0FE4141F47001AA
:100798004FF0000070BD41F0FE4141F4780170BD9A
:1007A80070B54FF0FF0C4CF4E06C1CEA11541DBFFF
:1007B8001CEA135594EA0C0F95EA0C0F00F0A7F801
:1007C800A4EB050481EA030E52EA03354FEA01312E
:1007D80000F088804FEA03334FF0805545EA131341
:1007E80043EA12634FEA022245EA111545EA106509
:1007F8004FEA00260EF000419D4208BF964244F1A0
:10080800FD0404F5407402D25B084FEA3202B61ABE
:1008180065EB03055B084FEA32024FF480104FF492
:10082800002CB6EB020E75EB030E22BFB61A754606
:1008380040EA0C005B084FEA3202B6EB020E75EB99
:10084800030E22BFB61A754640EA5C005B084FEA01
:100858003202B6EB020E75EB030E22BFB61A7546CE
:1008680040EA9C005B084FEA3202B6EB020E75EBD9
:10087800030E22BFB61A754640EADC0055EA060E9A
:1008880018D04FEA051545EA16754FEA06164FEADD
:10089800C30343EA52734FEAC2025FEA1C1CC0D189
:1008A80011F4801F0BD141EA00014FF000004FF016
:1008B800004CB6E711F4801F04BF01430020B4F1D7
:1008C800FD0C88BFBCF5E06F3FF6AFAEB5EB030C8F
:1008D80004BFB6EB020C5FEA500C50F1000041EB8C
:1008E800045170BD0EF0004E4EEA113114EB5C0459
:1008F800C2BFD4EB0C0541EA045170BD41F480112C
:100908004FF0000E013C90E645EA060E8DE60CEA33
:10091800135594EA0C0F08BF95EA0C0F3FF43BAF50
:1009280094EA0C0F0AD150EA01347FF434AF95EA07
:100938000C0F7FF425AF104619462CE795EA0C0FEB
:1009480006D152EA03353FF4FDAE1046194622E7B8
:1009580050EA410618BF52EA43067FF4C5AE50EA92
:1009680041047FF40DAF52EA43057FF4EBAE12E782
:100978004FF0FF3C06E000BF4FF0010C02E000BF63
:100988004FF0010C4DF804CD4FEA410C7FEA6C5C46
:100998004FEA430C18BF7FEA6C5C1BD001B050EAE9
:1009A800410C0CBF52EA430C91EA030F02BF90EAD4
:1009B800020F0020704710F1000F91EA030F58BF93
:1009C800994208BF90422CBFD8176FEAE37040F0F5
:1009D800010070474FEA410C7FEA6C5C02D150EA93
:1009E800013C07D14FEA430C7FEA6C5CD6D152EA4E
:1009F800033CD3D05DF8040B704700BF8446104613
:100A080062468C461946634600E000BF01B5FFF711
:100A1800B7FF002848BF10F1000F01BD4DF808EDE1
:100A2800FFF7F4FF0CBF012000205DF808FB00BFB2
:100A38004DF808EDFFF7EAFF34BF012000205DF80C
:100A480008FB00BF4DF808EDFFF7E0FF94BF012059
:100A580000205DF808FB00BF4DF808EDFFF7CEFF5A
:100A680094BF012000205DF808FB00BF4DF808ED99
:100A7800FFF7C4FF34BF012000205DF808FB00BF6A
:100A88004FEA410212F5001215D211D56FF47873AE
:100A9800B3EB625212D94FEAC12343F0004343EA51
:100AA800505311F0004F23FA02F018BF404270472C
:100AB8004FF00000704750EA013005D111F00040B6
:100AC80008BF6FF0004070474FF00000704700BF4C
:100AD8004A0011D212F5001211D20DD56FF47873B5
:100AE800B3EB62520ED44FEAC12343F0004343EA0A
:100AF800505323FA02F070474FF00000704750EA55
:100B0800013002D14FF0FF3070474FF000007047BE
:100B180070B58AB0244B5A6942F400225A615A6966
:100B280002F400220192019A5A6942F480025A6141
:100B38005A6902F480020292029A5A6942F4003217
:100B48005A615A6902F400320392039A5A6942F4CC
:100B580080225A615B6903F480230493049B134D3C
:100B680028464FF40051002201F0A0FA4FF4005635
:100B780005960F4B0693002407940E4805A901F02B
:100B8800C5F905960123069307940894284605A9F4
:100B980001F0BCF928202146224601F0D1FA28208C
:100BA80001F000FB0AB070BD0010024000040048CC
:100BB800000021100008004810B500F031FD084C75
:100BC800D4E900010022074BFFF70EFBC4E900013E
:100BD800054B1B6813B1013B034A136010BD00BFEE
:100BE800380300200000F03F00000020FEE700BFAF
:100BF80008B50C480C4B03604FF4165343600023B0
:100C08008360C36003610C2242618361C361036234
:100C1800436200F077FB18B10448D821FFF7E6FFDC
:100C280008BD00BF54010020004400407849000876
:100C380000B591B00223069301220A9210220B926A
:100C48000D9300230E934FF460130F9306A800F042
:100C5800F5FC18B11448AB21FFF7C8FF0F23019327
:100C680002210291002303934FF4806204920593BA
:100C780001A801F029F818B10B48B921FFF7B6FF10
:100C880001F012F9094BA3FB0030800901F096FA34
:100C9800042001F0A9FA4FF0FF3000210A4601F0C4
:100CA8004FFA11B05DF804FB78490008D34D621083
:100CB80008B500F0A3FCFFF7BBFFFFF729FFFFF71C
:100CC80097FF2C4B1868FFF7CBFB00222A4BFFF746
:100CD8003DFCFFF7FDFE0138B0F1807F0AD2274ABC
:100CE8005060F021264B83F82310002393600721DE
:100CF800116000E001231BB30122224B1A60214B33
:100D08001C6801341C601B4B1868FFF7A9FB002204
:100D1800194BFFF71BFCFFF7DBFEB0FBF4F0B0F15B
:100D2800807FECD2431EB3F1807F09D2134A53600F
:100D3800F021134B83F823100023936007231360DB
:100D4800104B1A68104B1A6001F0E4FB0E4B1B683D
:100D5800002BFBD10B4B1A680B4B1A600B4A13681C
:100D6800013B1360002BF1D10122084B1A6001F0FE
:100D780035FDEBE70C0000200000E03F10E000E04C
:100D880000ED00E004000020000000200800002022
:100D980008B500F045FC01F037FA08BD08B502486F
:100DA80000F068FB08BD00BF5401002008B54FF4EF
:100DB800005001F081F908BD00B583B01C4B9A6959
:100DC80042F001029A619B6903F001030193019BC0
:100DD800072001F0A3F96FF00B0000210A4601F08B
:100DE800AFF96FF00A0000210A4601F0A9F96FF087
:100DF800090000210A4601F0A3F96FF00400002160
:100E08000A4601F09DF96FF0030000210A4601F03F
:100E180097F96FF0010000210A4601F091F94FF0AF
:100E2800FF3000210A4601F08BF903B05DF804FB9E
:100E3800001002400268144B9A4224D110B586B0C3
:100E480003F5E633DA6942F40032DA61DB6903F468
:100E580000330093009B0C23019302230293002488
:100E680003940494072305934FF0904001A901F0DF
:100E78004DF826202146224601F062F9262001F08D
:100E880091F906B010BD704700440040026813682D
:100E980023F4907313600268936823F0010393604E
:100EA800202380F86A30704790F86930DBB2202B35
:100EB80018D1C9B1D2B190F86830012B18D0C164EB
:100EC800A0F85020A0F852200023C366212280F801
:100ED800692080F8683001680A6842F080020A6078
:100EE800184670470220704701207047012070475C
:100EF8000220704790F86A30DBB2202B48D10029D5
:100F080048D0002A48D090F86830012B46D00123F9
:100F180080F868304165A0F85820A0F85A20836806
:100F2800B3F5805F0AD1036923B940F2FF13A0F833
:100F38005C301AE0FF23A0F85C3016E04BB9036977
:100F48001BB9FF23A0F85C300FE07F23A0F85C30CA
:100F58000BE0B3F1805F08D103691BB97F23A0F8C8
:100F68005C3002E03F23A0F85C300023C3662222F5
:100F780080F86A2080F8683001688A6842F00102C7
:100F88008A6001680A6842F490720A6018467047DD
:100F980002207047012070470120704702207047E7
:100FA800704700BF08B5406A0023A0F85A30A0F87F
:100FB8005230FFF7F5FF08BD38B50446826803696B
:100FC8001A4343691A43C369134301680868634AAB
:100FD800024013430B6021684B6823F44052E368D6
:100FE80013434B60A269236A134321688A6822F479
:100FF800306213438B602568594B9D4212D103F52B
:1010080058431B6B03F00303032B09D8DFE803F0F5
:1010180002040613002313E0042311E008230FE061
:1010280010230DE04F4B9D4207D003F580639D428E
:1010380005D1002304E0022302E0002300E010238E
:10104800E269B2F5004F47D1082B3BD8DFE803F03F
:1010580005101B3A263A3A3A310000F02BFF636834
:101068005A0802EB4000B0FBF3F39BB200202BE0E0
:1010780000F036FF63685A0802EB4000B0FBF3F358
:101088009BB2002020E061684A0802F5740303F56A
:101098001053B3FBF1F39BB2002015E000F0DCFD28
:1010A80063685A0802EB4000B0FBF3F39BB20020E0
:1010B8000AE06268530803F58033B3FBF2F39BB28E
:1010C800002001E00120002323F00F02C3F34203B4
:1010D80013432268D36038BD082B3DD8DFE803F0FE
:1010E80005101B3C273C3C3C320000F0E3FE6368E3
:1010F80000EB5300B0FBF3F080B2E860002038BD8D
:1011080000F0EEFE636800EB5300B0FBF3F080B232
:10111800E860002038BD61684A0802F5F40303F569
:101128009053B3FBF1F39BB2EB60002038BD00F0A5
:1011380093FD636800EB5300B0FBF3F080B2E86006
:10114800002038BD6268530803F50043B3FBF2F38F
:101158009BB2EB60002038BD012038BDF369FFEF7A
:101168000038014000440040436A13F0010F06D0E4
:1011780001684B6823F40032836A13434B60436A67
:1011880013F0020F06D001684B6823F48032C36A5B
:1011980013434B60436A13F0040F06D001684B6891
:1011A80023F48022036B13434B60436A13F0080F48
:1011B80006D001684B6823F40042436B13434B602D
:1011C800436A13F0100F06D001688B6823F480522D
:1011D800836B13438B60436A13F0200F06D00168BA
:1011E8008B6823F40052C36B13438B60436A13F07C
:1011F800400F11D001684B6823F48012036C13432D
:101208004B60036CB3F5801F06D101684B6823F46B
:10121800C002436C13434B60436A13F0800F06D03F
:1012280001684B6823F40022836C13434B607047BA
:101238002DE9F04106460C4617469846069D1EE0E5
:10124800B5F1FF3F1BD02DB100F0F2F9C8EB00005B
:10125800A84214D93268136823F4D0731360326833
:10126800936823F001039360202386F8693086F899
:101278006A30002386F868300320BDE8F0813368BF
:10128800DB692340A34214BF00230123BB42D7D00C
:101298000020BDE8F08100BF30B583B004460023CC
:1012A800C36600F0C5F9054623681B6813F0080FEC
:1012B8000AD06FF07E43009320464FF400110022BD
:1012C8002B46FFF7B5FFC0B923681B6813F0040F5E
:1012D8000AD06FF07E43009320464FF4800100222D
:1012E8002B46FFF7A5FF50B9202384F8693084F80E
:1012F8006A30002084F8680002E0032000E0032040
:1013080003B030BD80B310B5044690F8693013F0CF
:10131800FF0F04D1002380F86830FFF78BFD2423EA
:1013280084F869302268136823F0010313602046AB
:10133800FFF742FE012819D0636A13B12046FFF770
:1013480013FF2268536823F490435360226893681C
:1013580023F02A0393602268136843F001031360A3
:101368002046FFF799FF10BD0120704710BD00BF50
:1013780090F86930DBB2212B2DD1B0F852309BB2F6
:101388005BB90268136823F080031360026813686E
:1013980043F040031360002070478368B3F5805F13
:1013A8000BD103694BB9C36C02681B88C3F30803EC
:1013B8001385C36C0233C36405E00268C36C591C0F
:1013C800C1641B781385B0F85230013B9BB2A0F87A
:1013D8005230002070470220704700BF08B50168EE
:1013E8000B6823F040030B60202380F8693000F07D
:1013F800B3FF002008BD00BFB0F85C2090F86A3049
:10140800DBB2222B2DD110B503689B8C9BB281686F
:10141800B1F5805F08D1016931B9416D1A400A8080
:10142800436D0233436504E0416D4C1C44651A402A
:101438000A70B0F85A30013B9BB2A0F85A30BBB9D9
:101448000268136823F4907313600268936823F0AA
:1014580001039360202380F86A3000F059FF0020D0
:1014680010BD0268936943F0080393610220704736
:10147800002010BD38B504460268D369116813F01E
:101488000F0508D113F0200F05D011F0200F02D05E
:10149800FFF7B2FF38BD9068002D6FD010F001053E
:1014A80002D111F4907F69D013F0010F07D011F425
:1014B800807F04D001201062E26E0243E26613F0DE
:1014C800020F07D035B1226802201062E26E42F0A6
:1014D8000402E26613F0040F07D035B12268042035
:1014E8001062E26E42F00202E26613F0080F09D0C1
:1014F80011F0200F00D12DB1226808201062E26E91
:101508000243E266E26E002A5DD013F0200F05D098
:1015180011F0200F02D02046FFF76EFFE36E13F0A4
:10152800080F04D123689B6813F0400F20D0204691
:10153800FFF7ACFC23689A6812F0400F14D09A6841
:1015480022F040029A60636E53B11F4A5A63606E7C
:1015580000F0BEFD002836D0606E436B984738BD5A
:101568002046FFF71DFD38BD2046FFF719FD38BDA1
:101578002046FFF715FD0023E36638BD13F4801FEE
:101588000ED010F4800F0BD04FF480131362202379
:1015980084F8693084F86A30204600F017F838BDBE
:1015A80013F0800F06D011F0800F03D02046FFF70C
:1015B800DFFE38BD13F0400F05D011F0400F02D008
:1015C8002046FFF70BFF38BDAD0F0008704700BF7E
:1015D80010B50446074B1B680748A0FB0330800979
:1015E80000F0ECFD4FF0FF302146002200F0A8FD8E
:1015F800002010BD0C000020D34D621008B5074A2A
:10160800136843F010031360032000F087FD0020E7
:10161800FFF7DEFFFFF7D0FB002008BD00200240E7
:10162800024A136801331360704700BFC4010020E9
:10163800014B1868704700BFC401002070B582B024
:101648000446036813F0010F00F09D80B64B5B68F9
:1016580003F00C03042B0AD0B34B5B6803F00C03B4
:10166800082B1BD1B04B5B6813F4803F16D04FF4A6
:10167800003393FAA3F3AC4B19684FF4003393FA91
:10168800A3F3B3FA83F303F01F03012202FA03F36F
:10169800194278D06368002B75D1B6E26368B3F558
:1016A800803F05D1A04A136843F48033136026E0D5
:1016B80063B903F1804303F504331A6822F48032D6
:1016C8001A601A6822F480221A6018E0B3F5A02F75
:1016D8000CD103F18043A3F53C331A6842F480220D
:1016E8001A601A6842F480321A6008E08E4B1A6851
:1016F80022F480321A601A6822F480221A608A4919
:10170800CB6A23F00F02A3681343CB626368EBB183
:10171800FFF78EFF054605E0FFF78AFF401B6428A8
:1017280000F275824FF4003393FAA3F37E4B1968E5
:101738004FF4003393FAA3F3B3FA83F303F01F03D0
:10174800012202FA03F31942E6D01CE0FFF770FF0A
:10175800054605E0FFF76CFF401B642800F259823C
:101768004FF4003393FAA3F36F4B19684FF4003327
:1017780093FAA3F3B3FA83F303F01F03012202FAE7
:1017880003F31942E6D1236813F0020F00F09080AA
:10179800654B5B6813F00C0F0AD0634B5B6803F072
:1017A8000C03082B27D1604B5B6813F4803F22D1D0
:1017B800022393FAA3F35C4B1968022393FAA3F369
:1017C800B3FA83F303F01F03012202FA03F3194269
:1017D80003D02369934240F01E825348036823F0E4
:1017E800F8016369F82292FAA2F2B2FA82F29340FF
:1017F8000B4303605CE023699BB3012292FAA2F3D6
:10180800B3FA83F303F1845303F584139B001A603E
:10181800FFF70EFF054605E0FFF70AFF401B022809
:1018280000F2FB81022393FAA3F33F4B19680223CA
:1018380093FAA3F3B3FA83F303F01F03012202FA26
:1018480003F31942E8D03848036823F0F8016369C4
:10185800F82292FAA2F2B2FA82F293400B430360A2
:1018680026E0012393FAA3F3B3FA83F303F1845335
:1018780003F584139B0000221A60FFF7D9FE054682
:1018880005E0FFF7D5FE401B022800F2C8810223BD
:1018980093FAA3F3244B1968022393FAA3F3B3FA38
:1018A80083F303F01F03012202FA03F31942E8D17C
:1018B800236813F0080F55D0A3693BB3012191FAAF
:1018C800A1F2B2FA82F2194B13449B001960FFF798
:1018D800AFFE054605E0FFF7ABFE401B022800F20D
:1018E800A081022393FAA3F293FAA3F293FAA3F244
:1018F8000D4A516A93FAA3F3B3FA83F303F01F0373
:10190800012202FA03F31942E5D02BE0012292FAF0
:10191800A2F2B2FA82F2054B13449B0000221A602D
:10192800FFF786FE054609E000100240208190106E
:10193800FFF77EFE401B022800F27581022393FA0E
:10194800A3F293FAA3F293FAA3F2BE4A516A93FA66
:10195800A3F3B3FA83F303F01F03012202FA03F39C
:101968001942E5D1236813F0040F00F0B880B54B95
:10197800DB6913F0805F0BD1B24BDA6942F0805219
:10198800DA61DB6903F080530193019B012500E0D4
:101998000025AD4B1B6813F4807F13D1AA4A136846
:1019A80043F480731360FFF743FE064605E0FFF734
:1019B8003FFE801B642800F23881A34B1B6813F498
:1019C800807FF4D0E368012B05D19E4A136A43F067
:1019D8000103136222E063B903F1804303F5043382
:1019E8001A6A22F001021A621A6A22F004021A62C2
:1019F80014E0052B09D1934B1A6A42F004021A62CB
:101A08001A6A42F001021A6208E08E4B1A6A22F042
:101A180001021A621A6A22F004021A62E36863B3C6
:101A2800FFF706FE064607E0FFF702FE801B41F2BD
:101A38008833984200F2FB80022393FAA3F293FAC8
:101A4800A3F3B3FA83F343F040035B09022B02D1FB
:101A58007C4B196A04E0022393FAA3F3794B596A81
:101A6800022393FAA3F3B3FA83F303F01F030122CB
:101A780002FA03F31942D7D02BE0FFF7D9FD064647
:101A880007E0FFF7D5FD801B41F28833984200F24A
:101A9800D080022393FAA3F293FAA3F3B3FA83F361
:101AA80043F040035B09022B02D1664B196A04E03C
:101AB800022393FAA3F3634B596A022393FAA3F31D
:101AC800B3FA83F303F01F03012202FA03F3194266
:101AD800D7D125B15B4AD36923F08053D361E36939
:101AE800002B00F0A880574A526802F00C02082A1E
:101AF80000F0A380022B5DD14FF0807393FAA3F31B
:101B0800B3FA83F303F1845303F584139B00002293
:101B18001A60FFF78DFD054605E0FFF789FD401BBC
:101B2800022800F28C804FF0007393FAA3F3454B20
:101B380019684FF0007393FAA3F3B3FA83F303F031
:101B48001F03012202FA03F31942E6D13D48436814
:101B580023F47411636A226A13430B4343604FF002
:101B6800807393FAA3F3B3FA83F303F1845303F571
:101B780084139B0001221A60FFF75AFD044604E013
:101B8800FFF756FD001B022860D84FF0007393FA48
:101B9800A3F32C4B19684FF0007393FAA3F3B3FA2D
:101BA80083F303F01F03012202FA03F31942E7D07B
:101BB80000204EE04FF0807393FAA3F3B3FA83F357
:101BC80003F1845303F584139B0000221A60FFF786
:101BD8002FFD044604E0FFF72BFD001B022837D831
:101BE8004FF0007393FAA3F3164B19684FF0007384
:101BF80093FAA3F3B3FA83F303F01F03012202FA63
:101C080003F31942E7D1002023E0012021E003205B
:101C18001FE003201DE001201BE0032019E0032042
:101C280017E0032015E0032013E0032011E0032050
:101C38000FE003200DE000200BE0012009E0032065
:101C480007E000BF0010024000700040032000E0E1
:101C5800032002B070BD00BF164B5A6802F00C0397
:101C6800082B24D102F470114FF4701393FAA3F3E4
:101C7800B3FA83F321FA03F30F49CB5C0D49C96A20
:101C880001F00F010F2090FAA0F0B0FA80F0C140E7
:101C98000A48405C12F4803F05D0094AB2FBF0F0D4
:101CA80003FB00F07047074800FB03F07047044847
:101CB800704700BF0010024094490008844900089A
:101CC80000127A0000093D0070B5734B1B6803F0E1
:101CD80007038B420BD2704A136823F007030B43A8
:101CE8001360136803F007038B4240F0C580036854
:101CF80013F0020F06D0694C636823F0F002836882
:101D0800134363600D460446036813F0010F75D052
:101D18004268012A13D14FF4003393FAA3F35F4BBF
:101D280018684FF4003393FAA3F3B3FA83F303F07C
:101D38001F03012101FA03F3184227D19EE0022A6A
:101D480013D14FF0007393FAA3F3544B18684FF074
:101D5800007393FAA3F3B3FA83F303F01F0301218B
:101D680001FA03F3184211D18AE0022393FAA3F38C
:101D78004A4B1868022393FAA3F3B3FA83F303F0E8
:101D88001F03012101FA03F318427BD043494B6832
:101D980023F0030313434B60FFF74AFC06466368CE
:101DA800012B0ED106E0FFF743FC801B41F288337C
:101DB800984269D8394B5B6803F00C03042BF2D1C5
:101DC8001CE0022B15D106E0FFF732FC801B41F224
:101DD800883398425AD8314B5B6803F00C03082BC0
:101DE800F2D10BE0FFF724FC801B41F288339842C4
:101DF8004ED82A4B5B6813F00C0FF3D1264B1B68A7
:101E080003F00703AB420AD9234A136823F00703F8
:101E18002B431360136803F00703AB423AD12368DE
:101E280013F0040F06D01D494B6823F4E062E36801
:101E380013434B60236813F0080F07D0174A536801
:101E480023F46053216943EAC1035360FFF704FF99
:101E5800124B5B6803F0F003F02292FAA2F2B2FA96
:101E680082F2D3400E4AD35CD8400E4B1860002053
:101E7800FFF7AEFB002070BD012070BD012070BDD2
:101E8800012070BD012070BD032070BD032070BD0E
:101E9800032070BD012070BD0020024000100240E8
:101EA800A44900080C000020014B1868704700BFC7
:101EB8000C00002008B5FFF7F7FF074B5B6803F439
:101EC800E0634FF4E06292FAA2F2B2FA82F2D340EF
:101ED800024AD35CD84008BD00100240B44900084B
:101EE80008B5FFF7E1FF074B5B6803F460534FF455
:101EF800605292FAA2F2B2FA82F2D340024AD35C5A
:101F0800D84008BD00100240B44900082DE9F0414E
:101F180082B00023B8E001249C40224000F0B38046
:101F28004D68022D01D0122D14D14FEAD30E0EF1B7
:101F3800080E50F82E7003F007084FEA88080F259E
:101F480005FA08F527EA05060D6905FA08F5354387
:101F580040F82E5006684FEA430E032505FA0EF5A1
:101F6800ED4305EA06074E6806F0030606FA0EF684
:101F78003E4306604E68771E012F03D9112E01D00B
:101F8800122E12D1866805EA0607CE6806FA0EF602
:101F98003E438660476827EA04074E68C6F3001484
:101FA80004FA0CF646EA07044460C4682C408D68BD
:101FB80005FA0EF52543C5604C6814F0805F62D0C1
:101FC800364CA56945F00105A561A46904F0010432
:101FD8000194019C9F08BD1C314C54F8256003F006
:101FE800030E4FEA8E0E0F2404FA0EF426EA0405B7
:101FF800B0F1904F12D02B4CA0420DD004F5806464
:10200800A04207D004F58064A04201D1032406E071
:10201800052404E0022402E0012400E0002404FA7C
:102028000EF42C4302371E4D45F827401E4C2568F8
:10203800D44304EA05064F6817F4803F01D042EA0A
:102048000506194D2E606D6804EA05064F6817F4F9
:10205800003F01D042EA0506134D6E60AD6804EA00
:1020680005064F6817F4801F01D042EA05060E4D99
:10207800AE60ED682C404E6816F4001F01D042EAAD
:102088000504094AD46001330A689C4632FA03F40D
:102098007FF441AF02B0BDE8F08100BF00100240FC
:1020A8000000014000040048000401400AB18161B9
:1020B80070478162704700BF08B5044B5B690342F3
:1020C80003D0024B586100F0C7F908BD0004014075
:1020D80008B590F82130022B03D004238363012034
:1020E80008BD0268136823F00E03136002681368C2
:1020F80023F001031360C26B016C012303FA01F1A1
:10210800516080F82130002380F82030436B13B1F0
:102118009847002008BD002008BD00BF00F0070058
:10212800064AD36823F4E0631B041B0C43EA00202F
:1021380040F0BF6040F40030D060704700ED00E030
:1021480030B4164BDC68C4F30224C4F10705042D2F
:1021580028BF0425231D062B01D9033C00E00024D9
:10216800012303FA05F5013D2940A140A340013BA5
:102178001A400A43002806DA00F00F001201D2B212
:10218800074B1A5407E01201D2B200F1604000F583
:10219800614080F8002330BC704700BF00ED00E0CC
:1021A80014ED00E0410900F01F0001238340024ABA
:1021B80042F82130704700BF00E100E00138B0F17B
:1021C800807F0AD2064B5860F021064A82F8231015
:1021D8000020986007221A6070470120704700BFEE
:1021E80010E000E000ED00E0042805D1054A13687E
:1021F80043F0040313607047024A136823F0040392
:102208001360704710E000E008B5FEF7D5FC08BD84
:102218001549D1F8883043F47003C1F88830134B5E
:102228001A6842F001021A605868114A02405A605E
:102238001A6822F0847222F480321A601A6822F432
:1022480080221A605A6822F4FE025A60DA6A22F082
:102258000F02DA62186B074A02401A6300229A607A
:102268004FF000638B60704700ED00E00010024003
:102278000CC07FF8CCFC00FF70B400231C4618E0AB
:1022880015695669B54201D11688A6B96E1C166142
:10229800461C007828700134A4B210695569A84218
:1022A80009D0D568A84201D19068106101339BB26A
:1022B80030468B42E4D3138823441380002382F8EA
:1022C80021308C4202D293880133938070BC7047CE
:1022D80090F8203013F0FF0F16D010B5048894B191
:1022E800002380F82030C36841695B1A9AB294428F
:1022F80005D8448005482246FEF7D6FD10BD428029
:102308000248FEF7D1FD10BD704700BF5401002000
:10231800044B1A68044B1B68834201D10123937153
:10232800704700BF400200203C020020054B064ACF
:1023380013600649064A1160064A1A6002229A7119
:10234800704700BFE801002040020020540100202F
:102358003C020020F40100200E4B1B680E4A126854
:10236800824215D1012283F8202059885A690A44EB
:102378005A61D868824201D39A685A6193F8212039
:102388001AB91A88511A19807047022283F8212035
:10239800704700BFF0010020380200200E4B0F4AA2
:1023A80013600F490F4A116000221A805A809A80E0
:1023B8002021D9800C49996001F12000D860196169
:1023C80059610A4999610A49D961022183F82010A3
:1023D80083F82120704700BF14020020F00100207C
:1023E8005401002038020020C80100208122000882
:1023F800D922000810B5074C2268074B9360043BAC
:10240800D360FFF793FF2368044A1A61FFF7C6FFFA
:1024180010BD00BF60020020EC0100201602002061
:1024280008B50B4B1A689368198851B1094B93F892
:10243800203013F0FF0FF9D0D3681868054AFFF76A
:102448001BFF044B1B8813B10248FFF741FF08BD6F
:10245800600200201402002008B5B0F5807F35D056
:1024680010D810282AD006D8042841D0082823D00C
:1024780002283BD11EE0402824D0802824D02028E0
:1024880034D11DE0B0F5805F28D009D8B0F5806F51
:1024980020D0B0F5006F1FD0B0F5007F26D117E02F
:1024A800B0F5804F1ED0B0F5004F1DD0B0F5005FDD
:1024B8001CD115E001221CE003221AE0042218E0D6
:1024C800052216E0062214E0072212E0082210E096
:1024D80009220EE00A220CE00B220AE00D2208E095
:1024E8000D2206E00E2204E00F2202E0002200E0A6
:1024F8000222034B53F8223003B1984708BD00BFAE
:102508009C000020014A024B5A63704729240008A6
:102518009C0000202DE9F84FDFF8B08208F128036D
:10252800A14A1360DFF8A8A2CAF800809F4BC8F838
:1025380004309F4BC8F80030FFF7E4FF9D4C04239C
:10254800A3600025C4F88450E5672561A561E565A9
:10255800E56601266666E663A6646565C4F8945078
:10256800A565DFF870B2C4F844B0DAF80020136843
:10257800CBF80030904B23641E605E600A2199609E
:10258800DFF85492C4F850905368C9F800308B4F64
:10259800E7643E607E604FF44B73BB60C4F8148000
:1025A800874BA366804B1B681033C4F890302046D5
:1025B800042100F071F90423A360C4F88450E5678E
:1025C8002561A561E565E6666566E563A6646565FA
:1025D800C4F89450A565C4F844B02564C4F8509074
:1025E800DAF800301B68C9F80030E7643E607E60A6
:1025F8000A23BB60C4F81480042002F0D9F8054609
:10260800A067002800F0BD80082002F0D1F82067FC
:10261800002800F0B980042002F0CAF8606700289A
:1026280000F0B580674B2B60236F35461E60236F23
:102638005E60636F0A261E605B4B1B681833C4F824
:1026480090302046042100F0F3F8A06F02F0B8F8AB
:10265800206F02F0B5F8606F02F0B2F8FFF7CAFE1B
:102668000420A0600023C4F88430E3672361A361D9
:10267800E365E5666366E363A5646365C4F894305F
:10268800A365C4F844B02364C4F85090DAF8002075
:102698001268C9F80020E7643D607D60BE60C4F838
:1026A800148002F085F80546A067002872D008203B
:1026B80002F07EF8206700286FD0042002F078F836
:1026C800606700286CD03F4B2B60236F01251D608D
:1026D800236F5D60636F37461E60334E336818336F
:1026E800C4F890302046294600F0A2F8204602217E
:1026F80000F09EF8A06F02F063F8206F02F060F817
:10270800606F02F05DF80423A3600023C4F88430EE
:10271800E3672361A361E365E3666566E563A56432
:102728006365C4F89430A365C4F844B0DAF80020AF
:102738001168CBF80010204B23641D605D609F601A
:10274800C4F850905268C9F800201C4BE3641D601F
:102758005D604FF44B729A60C4F81480184BA366FE
:1027680033681033C4F890302046294600F094F8B6
:102778002046022100F090F8134B1D602846BDE862
:10278800F88F0020BDE8F88F0020BDE8F88F002002
:10279800BDE8F88F0020BDE8F88F0020BDE8F88F6D
:1027A8000020BDE8F88F00BF480300204401002046
:1027B800400100208C020020480200207002002006
:1027C800BC4900081400002010000020E000002090
:1027D80060020020400300202C03002008B5104BA5
:1027E8009B79DBB2022B0CD10D4B0E4919600022EC
:1027F8009A809A710C4B1B685B680C481A88FEF724
:1028080079FB074B9B79DBB2012B07D1064B1B6881
:102818005B681A88024B9A8002229A7108BD00BF31
:10282800E8010020F401002060020020540100208B
:1028380038B50346026D10689A6F11681C6F2568D9
:10284800DA6E54F822405B6F1B680A2B1CD00B2BE6
:1028580018D040F22B32934218BF512B10D0B3F549
:102868004B7F18BF522B09D040F22E32934218BF2B
:10287800542B01D1042208E0002206E0022204E0E1
:10288800012202E0102200E0082204FB05F303FB0A
:1028980002F201F09DFF38BD2DE9F04F2DED028BBE
:1028A800ABB0036CD3F800B0C26B53F822A0826EB1
:1028B800012914BF00250125042914BF2B4645F022
:1028C8000103062908BF43F00103002B01F010871C
:1028D8000C461268531E5A2B01F20A87DFE813F0E0
:1028E8005B00890011019901210269029202BA0272
:1028F800CF025703F80322044C0461047204FA045B
:102908000B05350549055905690579058905AD059D
:1029180004065B068506AF06C406D5062C073D07E8
:102928007B078F079F07AF07BF07CF07FF07300851
:102938005F088E08BD080709280943095A0979095B
:102948009309B009C909E109FD090D0A1D0A2C0AF4
:10295800450A610A760A8F0AA40ABD0AD20AE70A5A
:10296800FB0A330B6B0BA30BDA0B110C480C9C0CFA
:10297800D40CE90C110D390D710D880D9E0DC80D83
:10298800D70DE60DF40D220E3F0E5C0E790E960E55
:10299800B30ED00EED0EC36C816C53F831300A2B98
:1029A8001AD00B2B16D040F22B318B4218BF512B6B
:1029B80013D0B3F54B7F18BF522B09D040F22E32FB
:1029C800934218BF542B01D1042206E0002204E0F0
:1029D800022202E0102200E00822416C006D0AFB8E
:1029E8000BF30068096803FB02F201F0F1FE01F045
:1029F8007FBE436CD3F80090036DD3F800800026A7
:102A080079E0374609EBC603D3E900452046294655
:102A18000022CD4BFDF79AFDFEF732F8FDF730FDA9
:102A28000022CA4BFDF792FD02460B462046294676
:102A3800FDF7D8FB04460D46009021F000430193B2
:102A4800DDE90001BAA3D3E90023FEF70FF8002857
:102A58004AD02046294600220023FDF7FDFF08B38F
:102A68002046294600224FF07853FDF76FFDFEF708
:102A780007F8FDF705FD0022B54BFDF767FD024697
:102A88000B4620462946FDF7ADFB129021F0004386
:102A98001393DDE912010022AD4BFDF7A3FB0446B9
:102AA8000D4621E02046294600224FF07853FDF7D5
:102AB8004DFDFDF7E5FFFDF7E3FC0022A44BFDF714
:102AC80045FD02460B4620462946FDF78BFB1E9026
:102AD80021F000431F93DDE91E0100229C4BFDF706
:102AE80081FB044601F1004520462946FDF7C8FF51
:102AF80048F8270001360AFB0BF3B34281DC01F0EA
:102B0800F7BD436CD3F80090036DD3F8008000261E
:102B180079E0374609EBC603D3E900452046294644
:102B280000228C4BFDF712FDFDF7AAFFFDF7A8FC6C
:102B38000022894BFDF70AFD02460B46204629462E
:102B4800FDF750FB04460D46029021F00043039325
:102B5800DDE9020178A3D3E90023FDF787FF002808
:102B68004AD02046294600220023FDF775FF08B306
:102B78002046294600224FF07C53FDF7E7FCFDF77D
:102B88007FFFFDF77DFC0022744BFDF7DFFC02465A
:102B98000B4620462946FDF725FB149021F00043FB
:102BA8001593DDE9140100226C4BFDF71BFB04466D
:102BB8000D4621E02046294600224FF07C53FDF7C0
:102BC800C5FCFDF75DFFFDF75BFC0022634BFDF7DD
:102BD800BDFC02460B4620462946FDF703FB209024
:102BE80021F000432193DDE9200100225B4BFDF732
:102BF800F9FA044601F1004520462946FDF740FF51
:102C080028F8170001360AFB0BF3B34281DC01F008
:102C18006FBD436CD3F80090036DD3F80080002695
:102C280079E0374609EBC603D3E900452046294633
:102C380000224B4BFDF78AFCFDF722FFFDF720FC35
:102C48000022484BFDF782FC02460B4620462946E7
:102C5800FDF7C8FA04460D46049021F00043059399
:102C6800DDE9040136A3D3E90023FDF7FFFE0028C0
:102C78004AD02046294600220023FDF7EDFE08B37E
:102C88002046294600224FF07E53FDF75FFCFDF7F2
:102C9800F7FEFDF7F5FB0022334BFDF757FC024624
:102CA8000B4620462946FDF79DFA169021F0004371
:102CB8001793DDE9160100222B4BFDF793FA044622
:102CC8000D4621E02046294600224FF07E53FDF7AD
:102CD8003DFCFDF7D5FEFDF7D3FB0022224BFDF7A7
:102CE80035FC02460B4620462946FDF77BFA229022
:102CF80021F000432393DDE9220100221A4BFDF75E
:102D080071FA044601F1004520462946FDF7E0FE28
:102D180008F8070001360AFB0BF3B34281DC01F027
:102D2800E7BC436C1E68036D1D6800243BE000BFD0
:102D38000000C0FFFFFFDF4100000000C0FFDF40D0
:102D48000000000000C05F400000F03D0000F041BE
:102D58000000E0410000F03E0000F0400000E040CC
:102D68000000703F000070400000604006EBC403A4
:102D7800D3E90089404649460022CD4BFDF7E6FBE2
:102D8800FDF77EFEFDF77CFB0022CA4BFDF7DEFB5C
:102D980002460B4640464946FDF724FAFDF798FEE1
:102DA80045F8240001340AFB0BF3A342DEDC01F0F2
:102DB8009FBC436C1E68036D1D6800241CE006EB75
:102DC800C403D3E90089404649460022BA4BFDF7BF
:102DD800BDFBFDF755FEFDF753FB0022B74BFDF792
:102DE800B5FB02460B4640464946FDF7FBF9FDF7A1
:102DF8006FFE25F8140001340AFB0BF3A342DEDC56
:102E080001F076BC436C1E68036D1D6800241BE04E
:102E180006EBC403D3E90089404649460022A84B83
:102E2800FDF794FBFDF72CFEFDF72AFB0022A54BCE
:102E3800FDF78CFB02460B4640464946FDF7D2F9A2
:102E4800FDF746FE285501340AFB0BF3A342DFDCED
:102E580001F04EBC436C1F68036D1E68002408E037
:102E680006EBC40557F82400FDF70AFBC5E9000185
:102E780001340AFB0BF3A342F2DC01F039BC436CCA
:102E8800D3F80080036DD3F80090002679E0374628
:102E980058F82600FDF7F4FA04460D460022864B42
:102EA800FDF754FBFDF7ECFDFDF7EAFA0022834B32
:102EB800FDF74CFB02460B4620462946FDF792F9E2
:102EC80004460D46069021F000430793DDE906010C
:102ED80073A3D3E90023FDF7C9FD00284AD0204693
:102EE800294600220023FDF7B7FD08B320462946EE
:102EF80000224FF07C53FDF729FBFDF7C1FDFDF7DC
:102F0800BFFA0022704BFDF721FB02460B46204614
:102F18002946FDF767F9189021F000431993DDE978
:102F280018010022684BFDF75DF904460D4621E0C3
:102F38002046294600224FF07C53FDF707FBFDF79A
:102F48009FFDFDF79DFA00225F4BFDF7FFFA024651
:102F58000B4620462946FDF745F9249021F0004309
:102F68002593DDE924010022574BFDF73BF9044680
:102F780001F1004520462946FDF782FD29F8170092
:102F880001360AFB0BF3B34281DC01F0B1BB436CA1
:102F9800D3F80080036DD3F80090002679E0374617
:102FA80058F82600FDF76CFA04460D460022444BFB
:102FB800FDF7CCFAFDF764FDFDF762FA0022414BFC
:102FC800FDF7C4FA02460B4620462946FDF70AF9E2
:102FD80004460D46089021F000430993DDE90801F5
:102FE80031A3D3E90023FDF741FD00284AD020464C
:102FF800294600220023FDF72FFD08B32046294665
:1030080000224FF07E53FDF7A1FAFDF739FDFDF7D9
:1030180037FA00222D4BFDF799FA02460B46204657
:103028002946FDF7DFF81A9021F000431B93DDE9EC
:103038001A010022254BFDF7D5F804460D4621E07C
:103048002046294600224FF07E53FDF77FFAFDF710
:1030580017FDFDF715FA00221C4BFDF777FA02461B
:103068000B4620462946FDF7BDF8269021F000437F
:103078002793DDE926010022144BFDF7B3F8044637
:1030880001F1004520462946FDF722FD09F8070011
:1030980001360AFB0BF3B34281DC01F029BB00BF08
:1030A80000000000C0FFDF400000000000C05F40DB
:1030B8000000F03D0000F0410000F03E0000F0404C
:1030C8000000703F000070400000E04000006040D9
:1030D800436C1F68036DD3F8008000261CE057F886
:1030E8002600FDF7CDF904460D460022C64BFDF734
:1030F8002DFAFDF7C5FCFDF7C3F90022C34BFDF718
:1031080025FA02460B4620462946FDF76BF8FDF7DF
:10311800DFFC28F8160001360AFB0BF3B342DEDCAD
:1031280001F0E6BA436C1F68036DD3F800800026EF
:103138001CE057F82600FDF7A3F904460D460022C7
:10314800B34BFDF703FAFDF79BFCFDF799F9002255
:10315800B04BFDF7FBF902460B4620462946FDF722
:1031680041F8FDF7B5FC08F8060001360AFB0BF339
:10317800B342DEDC01F0BCBA436C1F68036D1E6805
:10318800002408E006EBC40537F91400FDF778F9C8
:10319800C5E9000101340AFB0BF3A342F2DC01F09C
:1031A800A7BA436C1C68036D1968002304E034F95E
:1031B800132041F8232001330AFB0BF29A42F6DC74
:1031C80001F096BA436CD3F80080036DD3F80090F1
:1031D800002679E0374638F91600FDF751F904461C
:1031E8000D4600228A4BFDF7B1F9FDF749FCFDF7C2
:1031F80047F90022874BFDF7A9F902460B462046FE
:103208002946FCF7EFFF04460D460A9021F00043DB
:103218000B93DDE90A017AA3D3E90023FDF726FC25
:1032280000284AD02046294600220023FDF714FC36
:1032380008B32046294600224FF07E53FDF786F951
:10324800FDF71EFCFDF71CF90022734BFDF77EF914
:1032580002460B4620462946FCF7C4FF1C9021F085
:1032680000431D93DDE91C0100226B4BFCF7BAFFFC
:1032780004460D4621E02046294600224FF07E53A1
:10328800FDF764F9FDF7FCFBFDF7FAF80022624B45
:10329800FDF75CF902460B4620462946FCF7A2FFDB
:1032A800289021F000432993DDE9280100225A4B98
:1032B800FCF798FF044601F1004520462946FDF732
:1032C80007FC09F8070001360AFB0BF3B34281DC5F
:1032D80001F00EBA436C1C68036D1968002304E002
:1032E80034F9132041F8232001330AFB0BF29A42E8
:1032F800F6DC01F0FDB9436C1F68036DD3F800805C
:1033080000261CE037F91600FDF7BAF804460D460A
:1033180000223F4BFDF71AF9FDF7B2FBFDF7B0F8B5
:1033280000223C4BFDF712F902460B46204629467F
:10333800FCF758FFFDF7CCFB08F8060001360AFB3E
:103348000BF3B342DEDC01F0D3B9436C1F68036DA5
:103358001E68002407E006EBC405385DFDF780F819
:10336800C5E9000101340AFB0BF3A342F3DC01F0C9
:10337800BFB9436C1C68036D1968002303E0E25C65
:1033880041F8232001330AFB0BF29A42F7DC01F0E3
:10339800AFB9436C1C68036D1968002303E0E25C55
:1033A80021F8132001330AFB0BF29A42F7DC01F0F3
:1033B8009FB9436C1C68036D1968002303E0E25C45
:1033C80041F8232001330AFB0BF29A42F7DC01F0A3
:1033D8008FB9436C1C68036D1968002303E0E25C35
:1033E80021F8132001330AFB0BF29A42F7DC01F0B3
:1033F8007FB9436C1F68036D1E68002417E000BF87
:103408000000000000C05F400000F03E0000F040F7
:103418000000703F000070400000604006EBC405EB
:1034280057F82400FDF71CF8C5E9000101340AFB30
:103438000BF3A342F2DC01F05BB9436CD3F80080D4
:10344800036DD3F80090002648E0374658F8260068
:10345800FDF706F804460D460022C74BFDF776F83F
:10346800FDF70EFBFDF70CF80022C44BFDF76EF8D4
:1034780002460B4620462946FCF7B4FE04460D4694
:10348800B9A3D3E90023FDF7F1FA00B32046294692
:1034980000224FF07C53FDF759F8FDF7F1FAFCF7DD
:1034A800EFFF0022B64BFDF751F802460B462046C7
:1034B8002946FCF797FE0C9021F000430D93DDE9B7
:1034C8000C010022AE4BFCF78DFE04460D4620464B
:1034D8002946FDF7D5FA29F8170001360AFB0BF340
:1034E800B342B2DC01F004B9436CD3F80080036D39
:1034F800D3F80090002648E0374658F82600FCF735
:10350800AFFF04460D4600229E4BFDF71FF8FDF75E
:10351800B7FAFCF7B5FF00229B4BFDF717F80246F8
:103528000B4620462946FCF75DFE04460D4690A34F
:10353800D3E90023FDF79AFA00B320462946002272
:103548004FF07E53FDF702F8FDF79AFAFCF798FF63
:1035580000228E4BFCF7FAFF02460B46204629460E
:10356800FCF740FE0E9021F000430F93DDE90E01B9
:103578000022864BFCF736FE04460D4620462946B7
:10358800FDF7A6FA09F8070001360AFB0BF3B34268
:10359800B2DC01F0ADB8436C1F68036DD3F800804E
:1035A80000261CE057F82600FCF75AFF04460D4693
:1035B8000022714BFCF7CAFFFDF762FAFCF760FFC7
:1035C80000226E4BFCF7C2FF02460B4620462946F6
:1035D800FCF708FEFDF77CFA28F8160001360AFB0E
:1035E8000BF3B342DEDC01F083B8436C1F68036D54
:1035F800D3F8008000261CE057F82600FCF730FFBF
:1036080004460D4600225F4BFCF7A0FFFDF738FA91
:10361800FCF736FF00225C4BFCF798FF02460B468E
:1036280020462946FCF7DEFDFDF752FA08F80600A9
:1036380001360AFB0BF3B342DEDC01F059B8436CE8
:103648001F68036D1E68002408E006EBC40537F800
:103658001400FCF705FFC5E9000101340AFB0BF370
:10366800A342F2DC01F044B8436C1C68036D19688E
:10367800002304E034F8132041F8232001330AFB27
:103688000BF29A42F6DC01F033B8436CD3F80080B1
:10369800036DD3F80090002648E0374638F8160046
:1036A800FCF7DEFE04460D460022364BFCF74EFFC3
:1036B800FDF7E6F9FCF7E4FE0022334BFCF746FF82
:1036C80002460B4620462946FCF78CFD04460D466B
:1036D80027A3D3E90023FDF7C9F900B320462946FB
:1036E80000224FF07E53FCF731FFFDF7C9F9FCF7D4
:1036F800C7FE0022254BFCF729FF02460B46204651
:103708002946FCF76FFD109021F000431193DDE985
:10371800100100221D4BFCF765FD04460D462046AE
:103728002946FDF7D5F909F8070001360AFB0BF31E
:10373800B342B2DC00F0DCBF436C1C68036D19684F
:10374800002304E034F8132041F8232001330AFB56
:103758000BF29A42F6DC00F0CBBF436C1F68036D96
:10376800D3F80080002630E000000000C0FFDF40F2
:103778000000000000C05F400000F03E0000F04084
:103788000000E0400000703F000070400000604012
:1037980037F81600FCF764FE04460D460022B84BC5
:1037A800FCF7D4FEFDF76CF9FCF76AFE0022B54B76
:1037B800FCF7CCFE02460B4620462946FCF712FDD4
:1037C800FDF786F908F8060001360AFB0BF3B34249
:1037D800DEDC00F08DBF436C1F68036D1E6800249B
:1037E80007E006EBC405385DFCF73AFEC5E90001C1
:1037F80001340AFB0BF3A342F3DC00F079BF436CFE
:103808001C68036D1968002303E0E25C41F823207B
:1038180001330AFB0BF29A42F7DC00F069BF436CF4
:103828001C68036D1968002303E0E25C21F813208B
:1038380001330AFB0BF29A42F7DC00F059BF436CE4
:103848001C68036D1968002303E0E25C41F823203B
:1038580001330AFB0BF29A42F7DC00F049BF436CD4
:103868001C68036D1968002303E0E25C21F813204B
:1038780001330AFB0BF29A42F7DC00F039BF436CC4
:103888001D68036DD3F80080002422E005EBC40313
:10389800D3E900673046394673A3D3E90023FDF71F
:1038A800E5F820B16FF0004348F8243010E03046C6
:1038B80039460022744BFDF7BBF818B1734B48F832
:1038C800243005E030463946FDF7DAF848F8240098
:1038D80001340AFB0BF3A342D8DC00F009BF436CA8
:1038E8001D68036DD3F80080002423E005EBC403B2
:1038F800D3E90067304639465DA3D3E90023FDF7D5
:10390800B5F820B147F6FF7328F8143011E03046B7
:10391800394600225E4BFDF78BF820B148F20103CF
:1039280028F8143005E030463946FDF7A9F828F89C
:10393800140001340AFB0BF3A342D7DC00F0D8BE15
:10394800436C1D68036DD3F80080002421E005EB6B
:10395800C403D3E900673046394647A3D3E90023B7
:10396800FDF784F818B17F2308F8043010E03046DA
:1039780039460022474BFDF75BF818B1802308F859
:10398800043005E030463946FDF7A2F808F804008F
:1039980001340AFB0BF3A342D9DC00F0A9BE436C47
:1039A8001D68036DD3F80080002421E005EBC403F3
:1039B800D3E90067304639460022374BFDF74CF80B
:1039C80020B14FF0FF3348F8243010E03046394634
:1039D80000220023FDF72CF818B1002348F8243002
:1039E80005E030463946FDF773F848F824000134FD
:1039F8000AFB0BF3A342D9DC00F07ABE436C1D68C6
:103A0800036DD3F80080002421E005EBC403D3E95B
:103A18000067304639460022204BFDF71DF820B1DB
:103A28004FF6FF7328F8143010E03046394600226C
:103A38000023FCF7FDFF18B1002328F8143005E037
:103A480030463946FDF744F828F8140001340AFBDB
:103A58000BF3A342D9DC00F04BBE436C1D68036D29
:103A6800D3F8008000243CE00000C0FFFFFFDF41E6
:103A780000000000C0FFDF400000000000C05F4001
:103A88000000703F000070400000E0C101000080AD
:103A98000000E0C0000060C00000F0410000F040FD
:103AA80005EBC403D3E90067304639460022B74B1B
:103AB800FCF7D2FF18B1FF2308F8043010E03046B5
:103AC800394600220023FCF7B3FF18B1002308F899
:103AD800043005E030463946FCF7FAFF08F80400E0
:103AE80001340AFB0BF3A342DADC00F001BE436C9D
:103AF8001C68036D1868002314E054F82320B2F5FD
:103B0800004F04DB47F6FF7220F8132009E012F596
:103B1800004F04DA48F2010220F8132001E020F8EF
:103B2800132001330AFB0BF29A42E6DC00F0E0BDF9
:103B3800436C1C68036D186800230EE054F82320BA
:103B48007F2A02DD7F22C25406E012F1800F02DADA
:103B58008022C25400E0C25401330AFB0BF29A429D
:103B6800ECDC00F0C5BD436C1C68036D19680023CC
:103B78000AE054F82320002A03DA002241F823201F
:103B880001E041F8232001330AFB0BF29A42F0DCF2
:103B980000F0AEBD436C1C68036D1868002312E08A
:103BA80054F82320B2F5803F04DB4FF6FF7220F86B
:103BB800132007E0002A03DA002220F8132001E08E
:103BC80020F8132001330AFB0BF29A42E8DC00F0DC
:103BD8008FBD436C1C68036D186800230DE054F812
:103BE8002320FF2A02DDFF22C25405E0002A02DA60
:103BF8000022C25400E0C25401330AFB0BF29A427D
:103C0800EDDC00F075BD436C1C68036D1D68002376
:103C180010E034F8132011B27F2902DD7F22EA5424
:103C280007E011B211F1800F02DA8022EA5400E0B5
:103C3800EA5401330AFB0BF29A42EADC00F058BD61
:103C4800436C1C68036D196800230CE034F81320DA
:103C580012F4004F03D0002241F8232002E012B2F0
:103C680041F8232001330AFB0BF29A42EEDC00F004
:103C78003FBD436C1C68036D196800230BE034F8E2
:103C8800132012F4004F03D0002221F8132001E082
:103C980021F8132001330AFB0BF29A42EFDC00F003
:103CA80027BD436C1C68036D1D6800230FE034F8C2
:103CB800132011B2FF2902DDFF22EA5406E012F4B4
:103CC800004F02D00022EA5400E0EA5401330AFB14
:103CD8000BF29A42EBDC00F00BBD436C1C68036DE1
:103CE8001968002303E0E25C41F8232001330AFB52
:103CF8000BF29A42F7DC00F0FBBC436C1C68036DC6
:103D08001968002303E0E25C21F8132001330AFB61
:103D18000BF29A42F7DC00F0EBBC436C1C68036DB5
:103D28001968002302E0E25CCA5401330AFB0BF273
:103D38009A42F8DC00F0DCBC436C1968036D186823
:103D480000230CE051F82320B2F1004F04D36FF0A8
:103D5800004240F8232001E040F8232001330AFB09
:103D68000BF29A42EEDC00F0C3BC436C1968036D99
:103D7800186800230FE051F82320B2F5004F07D34D
:103D880047F6FF7220F8132004E000BF00007040DF
:103D980020F8132001330AFB0BF29A42EBDC00F007
:103DA800A7BC436C1968036D1868002308E051F834
:103DB80023207F2A02D97F22C25400E0C254013353
:103DC8000AFB0BF29A42F2DC00F092BC436C1968D1
:103DD800036D186800230CE051F82320B2F5004F5A
:103DE80004D347F6FF7220F8132001E020F81320CF
:103DF80001330AFB0BF29A42EEDC00F079BC436C0B
:103E08001968036D1868002308E051F823207F2AF9
:103E180002D97F22C25400E0C25401330AFB0BF2DC
:103E28009A42F2DC00F064BC436C1968036D1868B0
:103E380000230CE031F81320B2F5004F04D347F605
:103E4800FF7220F8132001E020F8132001330AFB49
:103E58000BF29A42EEDC00F04BBC436C1968036D20
:103E68001868002308E031F813207F2A02D97F223E
:103E7800C25400E0C25401330AFB0BF29A42F2DC4E
:103E880000F036BC436C1968036D1868002308E01D
:103E980031F813207F2A02D97E22C25400E0C2548E
:103EA80001330AFB0BF29A42F2DC00F021BC436CAE
:103EB8001968036D1868002307E0CA5C7F2A02D9D5
:103EC8007F22C25400E0C25401330AFB0BF29A422B
:103ED800F3DC00F00DBC436CD3F80090036D1B6855
:103EE800009300272AE0B84609EBC70393ED008B3F
:103EF8004FF0010651EC180BC5A3D3E90023FCF7DA
:103F0800B5FD08B94FF000064FF0010551EC180B4C
:103F18000022B94BFCF78CFD08B94FF0000535437A
:103F280015F0FF0F02D0012C07D1E1E351EC180B7B
:103F3800FCF7A6FD009B43F8280001370AFB0BF3AA
:103F4800BB42D0DCD4E3436CD3F80090036D1B680C
:103F5800009300272AE0B84609EBC70393ED008BCE
:103F68004FF0010651EC180B9FA3D3E90023FCF78F
:103F78007DFD08B94FF000064FF0010551EC180B14
:103F880000229E4BFCF754FD08B94FF0000535435D
:103F980015F0FF0F02D0012C07D1A9E351EC180B43
:103FA800FCF76EFD009B23F8180001370AFB0BF3A2
:103FB800BB42D0DC9CE3436CD3F80090036D1B68D4
:103FC800009300272AE0B84609EBC70393ED008B5E
:103FD8004FF0010651EC180B85A3D3E90023FCF739
:103FE80045FD08B94FF000064FF0010551EC180BDC
:103FF8000022834BFCF71CFD08B94FF00005354340
:1040080015F0FF0F02D0012C07D171E351EC180B0A
:10401800FCF75EFD009B03F8080001370AFB0BF371
:10402800BB42D0DC64E3436CD3F80090036D1B689B
:104038000093002729E0B84609EBC70393ED008BEE
:104048004FF0010651EC180B00226E4BFCF704FDF3
:1040580008B94FF000064FF0010551EC180B00228B
:104068000023FCF7E5FC08B94FF00005354315F0CF
:10407800FF0F02D0012C07D13AE351EC180BFCF7E3
:1040880027FD009B43F8280001370AFB0BF3BB42CE
:10409800D1DC2DE3436CD3F80090036D1B680093CB
:1040A800002729E0B84609EBC70393ED008B4FF0D2
:1040B800010651EC180B0022534BFCF7CDFC08B954
:1040C8004FF000064FF0010551EC180B00220023B9
:1040D800FCF7AEFC08B94FF00005354315F0FF0FAB
:1040E80002D0012C07D103E351EC180BFCF7F0FCCC
:1040F800009B23F8180001370AFB0BF3BB42D1DC05
:10410800F6E2436CD3F80090036D1B680093002718
:1041180029E0B84609EBC70393ED008B4FF0010681
:1041280051EC180B0022394BFCF796FC08B94FF0FC
:1041380000064FF0010551EC180B00220023FCF794
:1041480077FC08B94FF00005354315F0FF0F02D092
:10415800012C07D1CCE251EC180BFCF7B9FC009B01
:1041680003F8080001370AFB0BF3BB42D1DCBFE2BE
:10417800436C1F68036D1B6802934FF00009049499
:104188002AE04C4657F829603046FCF779F9CDE922
:1041980000014FF0010814A3D3E90023FCF766FCE3
:1041A80008B94FF000084FF00105DDE900010022D1
:1041B800124BFCF73DFC08B94FF0000548EA05052D
:1041C80015F0FF0F03D0049B012B03D190E2029B53
:1041D80023F8146009F101090AFB0BF34B45D0DC05
:1041E80086E200BFAFF3008000000000C0FFDF40A0
:1041F8000000000000C05F400000E0C10000E0C017
:10420800000060C00000F0410000F0400000704075
:104218000000C0FFFFFFDF41436C1F68036D1B6890
:1042280002934FF00009049429E04C4657F829609E
:104238003046FCF725F9CDE900014FF00108B2A39B
:10424800D3E90023FCF712FC08B94FF000084FF03F
:104258000105DDE900010022AF4BFCF7E9FB08B9D5
:104268004FF0000548EA050515F0FF0F03D0049B41
:10427800012B02D13CE2029B1E5509F101090AFB00
:104288000BF34B45D1DC33E2436C1968036D1868B6
:10429800002309E051F82320002A02DA012C02D178
:1042A80026E240F8232001330AFB0BF29A42F1DCA4
:1042B8001EE2436CD3F80090036D1B680093002541
:1042C8001AE0A84659F825703846FCF7D9F84FF097
:1042D80001060022914BFCF7BFFB08B94FF000061E
:1042E80046EAD77616F0FF0F02D0012C03D1FFE182
:1042F800009B23F8187001350AFB0BF3AB42E0DC96
:10430800F6E1436CD3F80090036D1B680093002519
:104318001AE0A84659F825703846FCF7B1F84FF06E
:10432800010600227E4BFCF797FB08B94FF0000608
:1043380046EAD77616F0FF0F02D0012C03D1D7E159
:10434800009B03F8087001350AFB0BF3AB42E0DC75
:10435800CEE1436C1F68036D1B6802934FF00009A0
:10436800049429E04C4637F8196030B2FCF788F815
:10437800CDE900014FF0010863A3D3E90023FCF75E
:1043880075FB08B94FF000084FF00105DDE90001A1
:104398000022614BFCF74CFB08B94FF0000548EAD6
:1043A800050515F0FF0F03D0049B012B02D19FE1F7
:1043B800029B1E5509F101090AFB0BF34B45D1DCA1
:1043C80096E1436C1968036D186800230BE031F817
:1043D800132012F4004F02D0012C03D188E112B24D
:1043E80040F8232001330AFB0BF29A42EFDC7FE10D
:1043F800436C1968036D186800230AE031F813202C
:1044080012F4004F02D0012C02D171E120F81320E0
:1044180001330AFB0BF29A42F0DC69E1436CD3F8F2
:104428000090036D1B680093002602941BE034463D
:1044380039F816800FFA88F0FCF722F84FF00107D8
:104448000022374BFCF708FB08B94FF0000747EA92
:10445800D8372F4203D0029B012B03D148E1009BA0
:1044680003F8048001360AFB0BF3B342DFDC3FE1BB
:10447800436C1C68036D1968002303E0E25C41F893
:10448800232001330AFB0BF29A42F7DC30E1436C3C
:104498001C68036D1968002303E0E25C21F813200F
:1044A80001330AFB0BF29A42F7DC21E1436C1C68EA
:1044B800036D1968002302E0E25CCA5401330AFB69
:1044C8000BF29A42F8DC13E1436C1F68036DD3F8D2
:1044D8000080002510E057F825603046FBF7C0FF44
:1044E8000BA3D3E90023FCF7C1FA10B1012C02D1C8
:1044F800FEE048F8256001350AFB0BF3AB42EADC25
:10450800F6E000BFAFF300800000000000C05F408D
:104518000000C0FFFFFFDF41000060C00000F04066
:1045280000007040436C1F68036DD3F800800025BD
:1045380010E057F825603046FBF792FF70A3D3E9E7
:104548000023FCF793FA10B1012C02D1D0E028F82F
:10455800156001350AFB0BF3AB42EADCC8E0436C9B
:104568001F68036DD3F80080002510E057F8256018
:104578003046FBF775FF64A3D3E90023FCF776FA0E
:1045880010B1012C02D1B3E008F8056001350AFB2F
:104598000BF3AB42EADCABE0436C1F68036DD3F866
:1045A8000080002510E057F825603046FBF758FFDB
:1045B80053A3D3E90023FCF759FA10B1012C02D117
:1045C80096E028F8156001350AFB0BF3AB42EADCEC
:1045D8008EE0436C1F68036DD3F80080002510E05F
:1045E80057F825603046FBF73BFF47A3D3E9002384
:1045F800FCF73CFA10B1012C02D179E008F805600B
:1046080001350AFB0BF3AB42EADC71E0436C1F682F
:10461800036DD3F80080002510E037F815603046A8
:10462800FBF72EFF36A3D3E90023FCF71FFA10B1DE
:10463800012C02D15CE028F8156001350AFB0BF368
:10464800AB42EADC54E0436C1F68036DD3F800808A
:10465800002510E037F815603046FBF711FF2AA354
:10466800D3E90023FCF702FA10B1012C02D13FE094
:1046780008F8056001350AFB0BF3AB42EADC37E0CA
:10468800436C1F68036DD3F80080002510E037F8ED
:1046980015603046FBF7F4FE1BA3D3E90023FCF7B3
:1046A800E5F910B1012C02D122E008F805600135C6
:1046B8000AFB0BF3AB42EADC1AE0436C1F68036D9C
:1046C800D3F8008000250FE07E5D3046FBF7D8FE6A
:1046D8000DA3D3E90023FCF7C9F910B1012C02D1CD
:1046E80006E008F8056001350AFB0BF3AB42EBDC8A
:1046F8002BB0BDEC028BBDE8F08F00BFAFF300809C
:1047080000000000C0FFDF400000000000C05F4064
:10471800DFF834D0002103E00C4B5B5843500431E0
:104728000B480C4B42189A42F6D30B4A02E000237E
:1047380042F8043B094B9A42F9D3FDF769FD00F0B2
:1047480011F8FCF7B5FAFEE700400020CC49000854
:10475800000000207C000020800000205003002082
:10476800FEE7000070B50E4B0E4CE41AA4100025AD
:104778001E46A54204D056F8253098470135F8E77B
:1047880000F0EAF8084C094BE41AA41000251E466C
:10479800A54204D056F8253098470135F8E770BD92
:1047A800C4490008C4490008C8490008C4490008A9
:1047B800024B0146186800F05BB800BF7800002083
:1047C800024B0146186800F00FB800BF78000020BF
:1047D80010B5431E0A44914204D011F8014B03F866
:1047E800014FF8E710BD000030B500293DD051F861
:1047F800042C0B1F1D49002AB8BF9B180A680C46D9
:1048080012B95A600B6030BD93420DD2196858181E
:10481800904201BF5A5852181A6042685A60236081
:1048280030BD994203D80A4651680029F9D1146865
:1048380015199D420AD11B682344D0188842136079
:1048480013D10868034413604B680DE002D90C23A8
:10485800036030BD1C681819884204BF086849689D
:10486800596004BF00191860536030BD4C01002026
:1048780070B5CC1C24F0030408340C2C38BF0C246D
:10488800002C064603DA0C233360002070BD8C42EE
:10489800F9D3204A136810461946A1B10A68121BB9
:1048A8000ED40B2A03D90A608B188C501FE08B4258
:1048B8000DBF5A684A685A60026018BF0B4616E076
:1048C8000B464968E9E7144D2B681BB9304600F0E0
:1048D80025F828603046214600F020F8421C03469F
:1048E800D1D0C51C25F0030585420AD11C6003F10F
:1048F8000B001A1D20F00700821A0AD05142995065
:1049080070BD3046E91A00F009F80130BBD02B46DB
:10491800ECE770BD4C0100204801002038B5064C7A
:10492800002305460846236000F008F8431C02D11E
:10493800236803B12B6038BD4C030020044A0549A5
:104948001368002B08BF0B461844106018467047C0
:104958005001002050030020F8B500BFF8BC08BC87
:104968009E467047F8B500BFF8BC08BC9E46704725
:104978005372632F6D61696E2E6300000102030498
:1049880005060708090A0B0C0D0E0F100203040593
:10499800060708090A0B0C0D0E0F10100000000086
:1049A80000000000010203040607080900000000D7
:0C49B800010203040600000043000000A0
:0449C400AD01000839
:0449C8008901000859
:1049CC0001000000010000000100000000127A004C
:1049DC000400000000008040000000000000000007
:1049EC0000000000000000000000000000000000BB
:1049FC000000000000000000C0490008000000009A
:104A0C00000000000000000000000000000000009A
:104A1C00000000000000000000000000000000008A
:104A2C00000000000000000000000000000000007A
:0C4A3C0000000000000000001800002036
:04000005080047198F
:00000001FF
